{
  "contractName": "SaadCreations",
  "abi": [
    {
      "inputs": [],
      "stateMutability": "nonpayable",
      "type": "constructor"
    },
    {
      "anonymous": false,
      "inputs": [
        {
          "indexed": true,
          "internalType": "address",
          "name": "owner",
          "type": "address"
        },
        {
          "indexed": true,
          "internalType": "address",
          "name": "approved",
          "type": "address"
        },
        {
          "indexed": true,
          "internalType": "uint256",
          "name": "tokenId",
          "type": "uint256"
        }
      ],
      "name": "Approval",
      "type": "event"
    },
    {
      "anonymous": false,
      "inputs": [
        {
          "indexed": true,
          "internalType": "address",
          "name": "owner",
          "type": "address"
        },
        {
          "indexed": true,
          "internalType": "address",
          "name": "operator",
          "type": "address"
        },
        {
          "indexed": false,
          "internalType": "bool",
          "name": "approved",
          "type": "bool"
        }
      ],
      "name": "ApprovalForAll",
      "type": "event"
    },
    {
      "anonymous": false,
      "inputs": [
        {
          "indexed": true,
          "internalType": "address",
          "name": "previousOwner",
          "type": "address"
        },
        {
          "indexed": true,
          "internalType": "address",
          "name": "newOwner",
          "type": "address"
        }
      ],
      "name": "OwnershipTransferred",
      "type": "event"
    },
    {
      "anonymous": false,
      "inputs": [
        {
          "indexed": true,
          "internalType": "address",
          "name": "from",
          "type": "address"
        },
        {
          "indexed": true,
          "internalType": "address",
          "name": "to",
          "type": "address"
        },
        {
          "indexed": true,
          "internalType": "uint256",
          "name": "tokenId",
          "type": "uint256"
        }
      ],
      "name": "Transfer",
      "type": "event"
    },
    {
      "inputs": [],
      "name": "Owner",
      "outputs": [
        {
          "internalType": "address",
          "name": "",
          "type": "address"
        }
      ],
      "stateMutability": "view",
      "type": "function",
      "constant": true
    },
    {
      "inputs": [
        {
          "internalType": "address",
          "name": "to",
          "type": "address"
        },
        {
          "internalType": "uint256",
          "name": "tokenId",
          "type": "uint256"
        }
      ],
      "name": "approve",
      "outputs": [],
      "stateMutability": "nonpayable",
      "type": "function"
    },
    {
      "inputs": [
        {
          "internalType": "address",
          "name": "owner",
          "type": "address"
        }
      ],
      "name": "balanceOf",
      "outputs": [
        {
          "internalType": "uint256",
          "name": "",
          "type": "uint256"
        }
      ],
      "stateMutability": "view",
      "type": "function",
      "constant": true
    },
    {
      "inputs": [],
      "name": "baseURI",
      "outputs": [
        {
          "internalType": "string",
          "name": "",
          "type": "string"
        }
      ],
      "stateMutability": "view",
      "type": "function",
      "constant": true
    },
    {
      "inputs": [],
      "name": "endSaleTime",
      "outputs": [
        {
          "internalType": "uint256",
          "name": "",
          "type": "uint256"
        }
      ],
      "stateMutability": "view",
      "type": "function",
      "constant": true
    },
    {
      "inputs": [
        {
          "internalType": "uint256",
          "name": "tokenId",
          "type": "uint256"
        }
      ],
      "name": "getApproved",
      "outputs": [
        {
          "internalType": "address",
          "name": "",
          "type": "address"
        }
      ],
      "stateMutability": "view",
      "type": "function",
      "constant": true
    },
    {
      "inputs": [
        {
          "internalType": "address",
          "name": "owner",
          "type": "address"
        },
        {
          "internalType": "address",
          "name": "operator",
          "type": "address"
        }
      ],
      "name": "isApprovedForAll",
      "outputs": [
        {
          "internalType": "bool",
          "name": "",
          "type": "bool"
        }
      ],
      "stateMutability": "view",
      "type": "function",
      "constant": true
    },
    {
      "inputs": [],
      "name": "lastPublickSaleTokenIndex",
      "outputs": [
        {
          "internalType": "uint256",
          "name": "",
          "type": "uint256"
        }
      ],
      "stateMutability": "view",
      "type": "function",
      "constant": true
    },
    {
      "inputs": [],
      "name": "name",
      "outputs": [
        {
          "internalType": "string",
          "name": "",
          "type": "string"
        }
      ],
      "stateMutability": "view",
      "type": "function",
      "constant": true
    },
    {
      "inputs": [],
      "name": "owner",
      "outputs": [
        {
          "internalType": "address",
          "name": "",
          "type": "address"
        }
      ],
      "stateMutability": "view",
      "type": "function",
      "constant": true
    },
    {
      "inputs": [
        {
          "internalType": "uint256",
          "name": "tokenId",
          "type": "uint256"
        }
      ],
      "name": "ownerOf",
      "outputs": [
        {
          "internalType": "address",
          "name": "",
          "type": "address"
        }
      ],
      "stateMutability": "view",
      "type": "function",
      "constant": true
    },
    {
      "inputs": [],
      "name": "renounceOwnership",
      "outputs": [],
      "stateMutability": "nonpayable",
      "type": "function"
    },
    {
      "inputs": [
        {
          "internalType": "address",
          "name": "from",
          "type": "address"
        },
        {
          "internalType": "address",
          "name": "to",
          "type": "address"
        },
        {
          "internalType": "uint256",
          "name": "tokenId",
          "type": "uint256"
        }
      ],
      "name": "safeTransferFrom",
      "outputs": [],
      "stateMutability": "nonpayable",
      "type": "function"
    },
    {
      "inputs": [
        {
          "internalType": "address",
          "name": "from",
          "type": "address"
        },
        {
          "internalType": "address",
          "name": "to",
          "type": "address"
        },
        {
          "internalType": "uint256",
          "name": "tokenId",
          "type": "uint256"
        },
        {
          "internalType": "bytes",
          "name": "_data",
          "type": "bytes"
        }
      ],
      "name": "safeTransferFrom",
      "outputs": [],
      "stateMutability": "nonpayable",
      "type": "function"
    },
    {
      "inputs": [
        {
          "internalType": "address",
          "name": "operator",
          "type": "address"
        },
        {
          "internalType": "bool",
          "name": "approved",
          "type": "bool"
        }
      ],
      "name": "setApprovalForAll",
      "outputs": [],
      "stateMutability": "nonpayable",
      "type": "function"
    },
    {
      "inputs": [],
      "name": "startSaleTime",
      "outputs": [
        {
          "internalType": "uint256",
          "name": "",
          "type": "uint256"
        }
      ],
      "stateMutability": "view",
      "type": "function",
      "constant": true
    },
    {
      "inputs": [
        {
          "internalType": "bytes4",
          "name": "interfaceId",
          "type": "bytes4"
        }
      ],
      "name": "supportsInterface",
      "outputs": [
        {
          "internalType": "bool",
          "name": "",
          "type": "bool"
        }
      ],
      "stateMutability": "view",
      "type": "function",
      "constant": true
    },
    {
      "inputs": [],
      "name": "symbol",
      "outputs": [
        {
          "internalType": "string",
          "name": "",
          "type": "string"
        }
      ],
      "stateMutability": "view",
      "type": "function",
      "constant": true
    },
    {
      "inputs": [],
      "name": "totalSupply",
      "outputs": [
        {
          "internalType": "uint256",
          "name": "",
          "type": "uint256"
        }
      ],
      "stateMutability": "view",
      "type": "function",
      "constant": true
    },
    {
      "inputs": [
        {
          "internalType": "address",
          "name": "from",
          "type": "address"
        },
        {
          "internalType": "address",
          "name": "to",
          "type": "address"
        },
        {
          "internalType": "uint256",
          "name": "tokenId",
          "type": "uint256"
        }
      ],
      "name": "transferFrom",
      "outputs": [],
      "stateMutability": "nonpayable",
      "type": "function"
    },
    {
      "inputs": [
        {
          "internalType": "address",
          "name": "newOwner",
          "type": "address"
        }
      ],
      "name": "transferOwnership",
      "outputs": [],
      "stateMutability": "nonpayable",
      "type": "function"
    },
    {
      "stateMutability": "payable",
      "type": "receive",
      "payable": true
    },
    {
      "inputs": [
        {
          "internalType": "string",
          "name": "newUri",
          "type": "string"
        }
      ],
      "name": "setBaseUri",
      "outputs": [],
      "stateMutability": "nonpayable",
      "type": "function"
    },
    {
      "inputs": [
        {
          "internalType": "uint256",
          "name": "tokenId",
          "type": "uint256"
        }
      ],
      "name": "tokenURI",
      "outputs": [
        {
          "internalType": "string",
          "name": "",
          "type": "string"
        }
      ],
      "stateMutability": "view",
      "type": "function",
      "constant": true
    },
    {
      "inputs": [
        {
          "internalType": "address",
          "name": "zct_owner",
          "type": "address"
        },
        {
          "internalType": "string",
          "name": "zctURI",
          "type": "string"
        },
        {
          "internalType": "uint256",
          "name": "_price",
          "type": "uint256"
        }
      ],
      "name": "createNFT",
      "outputs": [
        {
          "internalType": "string",
          "name": "",
          "type": "string"
        }
      ],
      "stateMutability": "nonpayable",
      "type": "function"
    },
    {
      "inputs": [],
      "name": "startSale",
      "outputs": [
        {
          "internalType": "string",
          "name": "",
          "type": "string"
        }
      ],
      "stateMutability": "nonpayable",
      "type": "function"
    },
    {
      "inputs": [
        {
          "internalType": "uint256",
          "name": "_id",
          "type": "uint256"
        }
      ],
      "name": "getNFTPriceById",
      "outputs": [
        {
          "internalType": "uint256",
          "name": "",
          "type": "uint256"
        }
      ],
      "stateMutability": "view",
      "type": "function",
      "constant": true
    },
    {
      "inputs": [
        {
          "internalType": "uint8",
          "name": "_tokenId",
          "type": "uint8"
        }
      ],
      "name": "buyNFT",
      "outputs": [
        {
          "internalType": "string",
          "name": "",
          "type": "string"
        }
      ],
      "stateMutability": "payable",
      "type": "function",
      "payable": true
    }
  ],
  "bytecode": "0x608060405260006009556000600d556040518060400160405280601581526020017f68747470733a2f2f697066732e696f2f697066732f0000000000000000000000815250600e90805190602001906200005b9291906200023f565b503480156200006957600080fd5b506040518060400160405280600e81526020017f53616164204372656174696f6e730000000000000000000000000000000000008152506040518060400160405280600381526020017f53435400000000000000000000000000000000000000000000000000000000008152508160009080519060200190620000ee9291906200023f565b508060019080519060200190620001079291906200023f565b5050506200012a6200011e6200017160201b60201c565b6200017960201b60201c565b33600c60006101000a81548173ffffffffffffffffffffffffffffffffffffffff021916908373ffffffffffffffffffffffffffffffffffffffff16021790555062000354565b600033905090565b6000600660009054906101000a900473ffffffffffffffffffffffffffffffffffffffff16905081600660006101000a81548173ffffffffffffffffffffffffffffffffffffffff021916908373ffffffffffffffffffffffffffffffffffffffff1602179055508173ffffffffffffffffffffffffffffffffffffffff168173ffffffffffffffffffffffffffffffffffffffff167f8be0079c531659141344cd1fd0a4f28419497f9722a3daafe3b4186f6b6457e060405160405180910390a35050565b8280546200024d90620002ef565b90600052602060002090601f016020900481019282620002715760008555620002bd565b82601f106200028c57805160ff1916838001178555620002bd565b82800160010185558215620002bd579182015b82811115620002bc5782518255916020019190600101906200029f565b5b509050620002cc9190620002d0565b5090565b5b80821115620002eb576000816000905550600101620002d1565b5090565b600060028204905060018216806200030857607f821691505b602082108114156200031f576200031e62000325565b5b50919050565b7f4e487b7100000000000000000000000000000000000000000000000000000000600052602260045260246000fd5b613b1a80620003646000396000f3fe6080604052600436106101a05760003560e01c8063715018a6116100ec578063b66a0e5d1161008a578063e985e9c511610064578063e985e9c5146105d5578063eaa6a67614610612578063f2fde38b1461064f578063f655776214610678576101a7565b8063b66a0e5d14610544578063b88d4fde1461056f578063c87b56dd14610598576101a7565b8063a0bcfc7f116100c6578063a0bcfc7f1461049c578063a22cb465146104c5578063a961e9e8146104ee578063b4a99a4e14610519576101a7565b8063715018a61461042f5780638da5cb5b1461044657806395d89b4114610471576101a7565b806323b872dd1161015957806358371ccd1161013357806358371ccd1461035f5780636352211e1461038a5780636c0360eb146103c757806370a08231146103f2576101a7565b806323b872dd146102e2578063338f0bc71461030b57806342842e0e14610336576101a7565b806301ffc9a7146101ac57806305ca7a0a146101e957806306fdde0314610226578063081812fc14610251578063095ea7b31461028e57806318160ddd146102b7576101a7565b366101a757005b600080fd5b3480156101b857600080fd5b506101d360048036038101906101ce919061280c565b6106a8565b6040516101e09190612d4e565b60405180910390f35b3480156101f557600080fd5b50610210600480360381019061020b919061289f565b61078a565b60405161021d919061304b565b60405180910390f35b34801561023257600080fd5b5061023b6107ac565b6040516102489190612d69565b60405180910390f35b34801561025d57600080fd5b506102786004803603810190610273919061289f565b61083e565b6040516102859190612ce7565b60405180910390f35b34801561029a57600080fd5b506102b560048036038101906102b091906127d0565b6108c3565b005b3480156102c357600080fd5b506102cc6109db565b6040516102d9919061304b565b60405180910390f35b3480156102ee57600080fd5b5061030960048036038101906103049190612663565b6109e1565b005b34801561031757600080fd5b50610320610a41565b60405161032d919061304b565b60405180910390f35b34801561034257600080fd5b5061035d60048036038101906103589190612663565b610a47565b005b34801561036b57600080fd5b50610374610a67565b604051610381919061304b565b60405180910390f35b34801561039657600080fd5b506103b160048036038101906103ac919061289f565b610a6d565b6040516103be9190612ce7565b60405180910390f35b3480156103d357600080fd5b506103dc610b1f565b6040516103e99190612d69565b60405180910390f35b3480156103fe57600080fd5b50610419600480360381019061041491906125fe565b610bad565b604051610426919061304b565b60405180910390f35b34801561043b57600080fd5b50610444610c65565b005b34801561045257600080fd5b5061045b610ced565b6040516104689190612ce7565b60405180910390f35b34801561047d57600080fd5b50610486610d17565b6040516104939190612d69565b60405180910390f35b3480156104a857600080fd5b506104c360048036038101906104be919061285e565b610da9565b005b3480156104d157600080fd5b506104ec60048036038101906104e7919061272d565b610e3f565b005b3480156104fa57600080fd5b50610503610fc0565b604051610510919061304b565b60405180910390f35b34801561052557600080fd5b5061052e610fc6565b60405161053b9190612ce7565b60405180910390f35b34801561055057600080fd5b50610559610fec565b6040516105669190612d69565b60405180910390f35b34801561057b57600080fd5b50610596600480360381019061059191906126b2565b6110c3565b005b3480156105a457600080fd5b506105bf60048036038101906105ba919061289f565b611125565b6040516105cc9190612d69565b60405180910390f35b3480156105e157600080fd5b506105fc60048036038101906105f79190612627565b611137565b6040516106099190612d4e565b60405180910390f35b34801561061e57600080fd5b5061063960048036038101906106349190612769565b6111cb565b6040516106469190612d69565b60405180910390f35b34801561065b57600080fd5b50610676600480360381019061067191906125fe565b61131b565b005b610692600480360381019061068d91906128c8565b611413565b60405161069f9190612d69565b60405180910390f35b60007f80ac58cd000000000000000000000000000000000000000000000000000000007bffffffffffffffffffffffffffffffffffffffffffffffffffffffff1916827bffffffffffffffffffffffffffffffffffffffffffffffffffffffff1916148061077357507f5b5e139f000000000000000000000000000000000000000000000000000000007bffffffffffffffffffffffffffffffffffffffffffffffffffffffff1916827bffffffffffffffffffffffffffffffffffffffffffffffffffffffff1916145b80610783575061078282611535565b5b9050919050565b600080600f600084815260200190815260200160002054905080915050919050565b6060600080546107bb906132ae565b80601f01602080910402602001604051908101604052809291908181526020018280546107e7906132ae565b80156108345780601f1061080957610100808354040283529160200191610834565b820191906000526020600020905b81548152906001019060200180831161081757829003601f168201915b5050505050905090565b60006108498261159f565b610888576040517f08c379a000000000000000000000000000000000000000000000000000000000815260040161087f90612f6b565b60405180910390fd5b6004600083815260200190815260200160002060009054906101000a900473ffffffffffffffffffffffffffffffffffffffff169050919050565b60006108ce82610a6d565b90508073ffffffffffffffffffffffffffffffffffffffff168373ffffffffffffffffffffffffffffffffffffffff16141561093f576040517f08c379a000000000000000000000000000000000000000000000000000000000815260040161093690612feb565b60405180910390fd5b8073ffffffffffffffffffffffffffffffffffffffff1661095e61160b565b73ffffffffffffffffffffffffffffffffffffffff16148061098d575061098c8161098761160b565b611137565b5b6109cc576040517f08c379a00000000000000000000000000000000000000000000000000000000081526004016109c390612eab565b60405180910390fd5b6109d68383611613565b505050565b60095481565b6109f26109ec61160b565b826116cc565b610a31576040517f08c379a0000000000000000000000000000000000000000000000000000000008152600401610a289061300b565b60405180910390fd5b610a3c8383836117aa565b505050565b600d5481565b610a62838383604051806020016040528060008152506110c3565b505050565b600b5481565b6000806002600084815260200190815260200160002060009054906101000a900473ffffffffffffffffffffffffffffffffffffffff169050600073ffffffffffffffffffffffffffffffffffffffff168173ffffffffffffffffffffffffffffffffffffffff161415610b16576040517f08c379a0000000000000000000000000000000000000000000000000000000008152600401610b0d90612eeb565b60405180910390fd5b80915050919050565b600e8054610b2c906132ae565b80601f0160208091040260200160405190810160405280929190818152602001828054610b58906132ae565b8015610ba55780601f10610b7a57610100808354040283529160200191610ba5565b820191906000526020600020905b815481529060010190602001808311610b8857829003601f168201915b505050505081565b60008073ffffffffffffffffffffffffffffffffffffffff168273ffffffffffffffffffffffffffffffffffffffff161415610c1e576040517f08c379a0000000000000000000000000000000000000000000000000000000008152600401610c1590612ecb565b60405180910390fd5b600360008373ffffffffffffffffffffffffffffffffffffffff1673ffffffffffffffffffffffffffffffffffffffff168152602001908152602001600020549050919050565b610c6d61160b565b73ffffffffffffffffffffffffffffffffffffffff16610c8b610ced565b73ffffffffffffffffffffffffffffffffffffffff1614610ce1576040517f08c379a0000000000000000000000000000000000000000000000000000000008152600401610cd890612f8b565b60405180910390fd5b610ceb6000611a06565b565b6000600660009054906101000a900473ffffffffffffffffffffffffffffffffffffffff16905090565b606060018054610d26906132ae565b80601f0160208091040260200160405190810160405280929190818152602001828054610d52906132ae565b8015610d9f5780601f10610d7457610100808354040283529160200191610d9f565b820191906000526020600020905b815481529060010190602001808311610d8257829003601f168201915b5050505050905090565b610db161160b565b73ffffffffffffffffffffffffffffffffffffffff16610dcf610ced565b73ffffffffffffffffffffffffffffffffffffffff1614610e25576040517f08c379a0000000000000000000000000000000000000000000000000000000008152600401610e1c90612f8b565b60405180910390fd5b80600e9080519060200190610e3b92919061240d565b5050565b610e4761160b565b73ffffffffffffffffffffffffffffffffffffffff168273ffffffffffffffffffffffffffffffffffffffff161415610eb5576040517f08c379a0000000000000000000000000000000000000000000000000000000008152600401610eac90612e2b565b60405180910390fd5b8060056000610ec261160b565b73ffffffffffffffffffffffffffffffffffffffff1673ffffffffffffffffffffffffffffffffffffffff16815260200190815260200160002060008473ffffffffffffffffffffffffffffffffffffffff1673ffffffffffffffffffffffffffffffffffffffff16815260200190815260200160002060006101000a81548160ff0219169083151502179055508173ffffffffffffffffffffffffffffffffffffffff16610f6f61160b565b73ffffffffffffffffffffffffffffffffffffffff167f17307eab39ab6107e8899845ad3d59bd9653f200f220920489ca2b5937696c3183604051610fb49190612d4e565b60405180910390a35050565b600a5481565b600c60009054906101000a900473ffffffffffffffffffffffffffffffffffffffff1681565b6060610ff661160b565b73ffffffffffffffffffffffffffffffffffffffff16611014610ced565b73ffffffffffffffffffffffffffffffffffffffff161461106a576040517f08c379a000000000000000000000000000000000000000000000000000000000815260040161106190612f8b565b60405180910390fd5b42600a8190555062278d00600a546110829190613130565b600b819055506040518060400160405280601b81526020017f546f6b656e2073616c65206861732073746172746564206e6f772e0000000000815250905090565b6110d46110ce61160b565b836116cc565b611113576040517f08c379a000000000000000000000000000000000000000000000000000000000815260040161110a9061300b565b60405180910390fd5b61111f84848484611acc565b50505050565b606061113082611b28565b9050919050565b6000600560008473ffffffffffffffffffffffffffffffffffffffff1673ffffffffffffffffffffffffffffffffffffffff16815260200190815260200160002060008373ffffffffffffffffffffffffffffffffffffffff1673ffffffffffffffffffffffffffffffffffffffff16815260200190815260200160002060009054906101000a900460ff16905092915050565b60606111d561160b565b73ffffffffffffffffffffffffffffffffffffffff166111f3610ced565b73ffffffffffffffffffffffffffffffffffffffff1614611249576040517f08c379a000000000000000000000000000000000000000000000000000000000815260040161124090612f8b565b60405180910390fd5b6112536008611c7a565b600061125f6008611c90565b905060648111156112a5576040517f08c379a000000000000000000000000000000000000000000000000000000000815260040161129c90612d8b565b60405180910390fd5b6112af8582611c9e565b600960008154809291906112c290613311565b91905055506112d18185611e6c565b6112db8184611ee0565b6040518060400160405280601081526020017f4e6577204e4654204372656174656421000000000000000000000000000000008152509150509392505050565b61132361160b565b73ffffffffffffffffffffffffffffffffffffffff16611341610ced565b73ffffffffffffffffffffffffffffffffffffffff1614611397576040517f08c379a000000000000000000000000000000000000000000000000000000000815260040161138e90612f8b565b60405180910390fd5b600073ffffffffffffffffffffffffffffffffffffffff168173ffffffffffffffffffffffffffffffffffffffff161415611407576040517f08c379a00000000000000000000000000000000000000000000000000000000081526004016113fe90612dcb565b60405180910390fd5b61141081611a06565b50565b6060600a5442101580156114285750600b5442105b611467576040517f08c379a000000000000000000000000000000000000000000000000000000000815260040161145e90612e8b565b60405180910390fd5b6114738260ff1661159f565b6114b2576040517f08c379a00000000000000000000000000000000000000000000000000000000081526004016114a99061302b565b60405180910390fd5b600f60008360ff1681526020019081526020016000205434101561150b576040517f08c379a000000000000000000000000000000000000000000000000000000000815260040161150290612e6b565b60405180910390fd5b8160ff16600d81905550604051806080016040528060598152602001613a8c605991399050919050565b60007f01ffc9a7000000000000000000000000000000000000000000000000000000007bffffffffffffffffffffffffffffffffffffffffffffffffffffffff1916827bffffffffffffffffffffffffffffffffffffffffffffffffffffffff1916149050919050565b60008073ffffffffffffffffffffffffffffffffffffffff166002600084815260200190815260200160002060009054906101000a900473ffffffffffffffffffffffffffffffffffffffff1673ffffffffffffffffffffffffffffffffffffffff1614159050919050565b600033905090565b816004600083815260200190815260200160002060006101000a81548173ffffffffffffffffffffffffffffffffffffffff021916908373ffffffffffffffffffffffffffffffffffffffff160217905550808273ffffffffffffffffffffffffffffffffffffffff1661168683610a6d565b73ffffffffffffffffffffffffffffffffffffffff167f8c5be1e5ebec7d5bd14f71427d1e84f3dd0314c0f7b2291e5b200ac8c7c3b92560405160405180910390a45050565b60006116d78261159f565b611716576040517f08c379a000000000000000000000000000000000000000000000000000000000815260040161170d90612e4b565b60405180910390fd5b600061172183610a6d565b90508073ffffffffffffffffffffffffffffffffffffffff168473ffffffffffffffffffffffffffffffffffffffff16148061179057508373ffffffffffffffffffffffffffffffffffffffff166117788461083e565b73ffffffffffffffffffffffffffffffffffffffff16145b806117a157506117a08185611137565b5b91505092915050565b8273ffffffffffffffffffffffffffffffffffffffff166117ca82610a6d565b73ffffffffffffffffffffffffffffffffffffffff1614611820576040517f08c379a000000000000000000000000000000000000000000000000000000000815260040161181790612fab565b60405180910390fd5b600073ffffffffffffffffffffffffffffffffffffffff168273ffffffffffffffffffffffffffffffffffffffff161415611890576040517f08c379a000000000000000000000000000000000000000000000000000000000815260040161188790612e0b565b60405180910390fd5b61189b838383611f78565b6118a6600082611613565b6001600360008573ffffffffffffffffffffffffffffffffffffffff1673ffffffffffffffffffffffffffffffffffffffff16815260200190815260200160002060008282546118f691906131b7565b925050819055506001600360008473ffffffffffffffffffffffffffffffffffffffff1673ffffffffffffffffffffffffffffffffffffffff168152602001908152602001600020600082825461194d9190613130565b92505081905550816002600083815260200190815260200160002060006101000a81548173ffffffffffffffffffffffffffffffffffffffff021916908373ffffffffffffffffffffffffffffffffffffffff160217905550808273ffffffffffffffffffffffffffffffffffffffff168473ffffffffffffffffffffffffffffffffffffffff167fddf252ad1be2c89b69c2b068fc378daa952ba7f163c4a11628f55a4df523b3ef60405160405180910390a4505050565b6000600660009054906101000a900473ffffffffffffffffffffffffffffffffffffffff16905081600660006101000a81548173ffffffffffffffffffffffffffffffffffffffff021916908373ffffffffffffffffffffffffffffffffffffffff1602179055508173ffffffffffffffffffffffffffffffffffffffff168173ffffffffffffffffffffffffffffffffffffffff167f8be0079c531659141344cd1fd0a4f28419497f9722a3daafe3b4186f6b6457e060405160405180910390a35050565b611ad78484846117aa565b611ae384848484611f7d565b611b22576040517f08c379a0000000000000000000000000000000000000000000000000000000008152600401611b1990612dab565b60405180910390fd5b50505050565b6060611b338261159f565b611b72576040517f08c379a0000000000000000000000000000000000000000000000000000000008152600401611b6990612f4b565b60405180910390fd5b6000600760008481526020019081526020016000208054611b92906132ae565b80601f0160208091040260200160405190810160405280929190818152602001828054611bbe906132ae565b8015611c0b5780601f10611be057610100808354040283529160200191611c0b565b820191906000526020600020905b815481529060010190602001808311611bee57829003601f168201915b505050505090506000611c1c612114565b9050600081511415611c32578192505050611c75565b600082511115611c67578082604051602001611c4f929190612cc3565b60405160208183030381529060405292505050611c75565b611c70846121a6565b925050505b919050565b6001816000016000828254019250508190555050565b600081600001549050919050565b600073ffffffffffffffffffffffffffffffffffffffff168273ffffffffffffffffffffffffffffffffffffffff161415611d0e576040517f08c379a0000000000000000000000000000000000000000000000000000000008152600401611d0590612f2b565b60405180910390fd5b611d178161159f565b15611d57576040517f08c379a0000000000000000000000000000000000000000000000000000000008152600401611d4e90612deb565b60405180910390fd5b611d6360008383611f78565b6001600360008473ffffffffffffffffffffffffffffffffffffffff1673ffffffffffffffffffffffffffffffffffffffff1681526020019081526020016000206000828254611db39190613130565b92505081905550816002600083815260200190815260200160002060006101000a81548173ffffffffffffffffffffffffffffffffffffffff021916908373ffffffffffffffffffffffffffffffffffffffff160217905550808273ffffffffffffffffffffffffffffffffffffffff16600073ffffffffffffffffffffffffffffffffffffffff167fddf252ad1be2c89b69c2b068fc378daa952ba7f163c4a11628f55a4df523b3ef60405160405180910390a45050565b611e758261159f565b611eb4576040517f08c379a0000000000000000000000000000000000000000000000000000000008152600401611eab90612f0b565b60405180910390fd5b80600760008481526020019081526020016000209080519060200190611edb92919061240d565b505050565b611ee861160b565b73ffffffffffffffffffffffffffffffffffffffff16611f06610ced565b73ffffffffffffffffffffffffffffffffffffffff1614611f5c576040517f08c379a0000000000000000000000000000000000000000000000000000000008152600401611f5390612f8b565b60405180910390fd5b80600f6000848152602001908152602001600020819055505050565b505050565b6000611f9e8473ffffffffffffffffffffffffffffffffffffffff1661224d565b15612107578373ffffffffffffffffffffffffffffffffffffffff1663150b7a02611fc761160b565b8786866040518563ffffffff1660e01b8152600401611fe99493929190612d02565b602060405180830381600087803b15801561200357600080fd5b505af192505050801561203457506040513d601f19601f820116820180604052508101906120319190612835565b60015b6120b7573d8060008114612064576040519150601f19603f3d011682016040523d82523d6000602084013e612069565b606091505b506000815114156120af576040517f08c379a00000000000000000000000000000000000000000000000000000000081526004016120a690612dab565b60405180910390fd5b805181602001fd5b63150b7a0260e01b7bffffffffffffffffffffffffffffffffffffffffffffffffffffffff1916817bffffffffffffffffffffffffffffffffffffffffffffffffffffffff19161491505061210c565b600190505b949350505050565b6060600e8054612123906132ae565b80601f016020809104026020016040519081016040528092919081815260200182805461214f906132ae565b801561219c5780601f106121715761010080835404028352916020019161219c565b820191906000526020600020905b81548152906001019060200180831161217f57829003601f168201915b5050505050905090565b60606121b18261159f565b6121f0576040517f08c379a00000000000000000000000000000000000000000000000000000000081526004016121e790612fcb565b60405180910390fd5b60006121fa612114565b9050600081511161221a5760405180602001604052806000815250612245565b8061222484612260565b604051602001612235929190612cc3565b6040516020818303038152906040525b915050919050565b600080823b905060008111915050919050565b606060008214156122a8576040518060400160405280600181526020017f30000000000000000000000000000000000000000000000000000000000000008152509050612408565b600082905060005b600082146122da5780806122c390613311565b915050600a826122d39190613186565b91506122b0565b60008167ffffffffffffffff81111561231c577f4e487b7100000000000000000000000000000000000000000000000000000000600052604160045260246000fd5b6040519080825280601f01601f19166020018201604052801561234e5781602001600182028036833780820191505090505b5090505b600085146124015760018261236791906131b7565b9150600a85612376919061335a565b60306123829190613130565b60f81b8183815181106123be577f4e487b7100000000000000000000000000000000000000000000000000000000600052603260045260246000fd5b60200101907effffffffffffffffffffffffffffffffffffffffffffffffffffffffffffff1916908160001a905350600a856123fa9190613186565b9450612352565b8093505050505b919050565b828054612419906132ae565b90600052602060002090601f01602090048101928261243b5760008555612482565b82601f1061245457805160ff1916838001178555612482565b82800160010185558215612482579182015b82811115612481578251825591602001919060010190612466565b5b50905061248f9190612493565b5090565b5b808211156124ac576000816000905550600101612494565b5090565b60006124c36124be8461308b565b613066565b9050828152602081018484840111156124db57600080fd5b6124e684828561326c565b509392505050565b60006125016124fc846130bc565b613066565b90508281526020810184848401111561251957600080fd5b61252484828561326c565b509392505050565b60008135905061253b81613a18565b92915050565b60008135905061255081613a2f565b92915050565b60008135905061256581613a46565b92915050565b60008151905061257a81613a46565b92915050565b600082601f83011261259157600080fd5b81356125a18482602086016124b0565b91505092915050565b600082601f8301126125bb57600080fd5b81356125cb8482602086016124ee565b91505092915050565b6000813590506125e381613a5d565b92915050565b6000813590506125f881613a74565b92915050565b60006020828403121561261057600080fd5b600061261e8482850161252c565b91505092915050565b6000806040838503121561263a57600080fd5b60006126488582860161252c565b92505060206126598582860161252c565b9150509250929050565b60008060006060848603121561267857600080fd5b60006126868682870161252c565b93505060206126978682870161252c565b92505060406126a8868287016125d4565b9150509250925092565b600080600080608085870312156126c857600080fd5b60006126d68782880161252c565b94505060206126e78782880161252c565b93505060406126f8878288016125d4565b925050606085013567ffffffffffffffff81111561271557600080fd5b61272187828801612580565b91505092959194509250565b6000806040838503121561274057600080fd5b600061274e8582860161252c565b925050602061275f85828601612541565b9150509250929050565b60008060006060848603121561277e57600080fd5b600061278c8682870161252c565b935050602084013567ffffffffffffffff8111156127a957600080fd5b6127b5868287016125aa565b92505060406127c6868287016125d4565b9150509250925092565b600080604083850312156127e357600080fd5b60006127f18582860161252c565b9250506020612802858286016125d4565b9150509250929050565b60006020828403121561281e57600080fd5b600061282c84828501612556565b91505092915050565b60006020828403121561284757600080fd5b60006128558482850161256b565b91505092915050565b60006020828403121561287057600080fd5b600082013567ffffffffffffffff81111561288a57600080fd5b612896848285016125aa565b91505092915050565b6000602082840312156128b157600080fd5b60006128bf848285016125d4565b91505092915050565b6000602082840312156128da57600080fd5b60006128e8848285016125e9565b91505092915050565b6128fa816131eb565b82525050565b612909816131fd565b82525050565b600061291a826130ed565b6129248185613103565b935061293481856020860161327b565b61293d81613447565b840191505092915050565b6000612953826130f8565b61295d8185613114565b935061296d81856020860161327b565b61297681613447565b840191505092915050565b600061298c826130f8565b6129968185613125565b93506129a681856020860161327b565b80840191505092915050565b60006129bf602383613114565b91506129ca82613458565b604082019050919050565b60006129e2603283613114565b91506129ed826134a7565b604082019050919050565b6000612a05602683613114565b9150612a10826134f6565b604082019050919050565b6000612a28601c83613114565b9150612a3382613545565b602082019050919050565b6000612a4b602483613114565b9150612a568261356e565b604082019050919050565b6000612a6e601983613114565b9150612a79826135bd565b602082019050919050565b6000612a91602c83613114565b9150612a9c826135e6565b604082019050919050565b6000612ab4601683613114565b9150612abf82613635565b602082019050919050565b6000612ad7601383613114565b9150612ae28261365e565b602082019050919050565b6000612afa603883613114565b9150612b0582613687565b604082019050919050565b6000612b1d602a83613114565b9150612b28826136d6565b604082019050919050565b6000612b40602983613114565b9150612b4b82613725565b604082019050919050565b6000612b63602e83613114565b9150612b6e82613774565b604082019050919050565b6000612b86602083613114565b9150612b91826137c3565b602082019050919050565b6000612ba9603183613114565b9150612bb4826137ec565b604082019050919050565b6000612bcc602c83613114565b9150612bd78261383b565b604082019050919050565b6000612bef602083613114565b9150612bfa8261388a565b602082019050919050565b6000612c12602983613114565b9150612c1d826138b3565b604082019050919050565b6000612c35602f83613114565b9150612c4082613902565b604082019050919050565b6000612c58602183613114565b9150612c6382613951565b604082019050919050565b6000612c7b603183613114565b9150612c86826139a0565b604082019050919050565b6000612c9e601383613114565b9150612ca9826139ef565b602082019050919050565b612cbd81613255565b82525050565b6000612ccf8285612981565b9150612cdb8284612981565b91508190509392505050565b6000602082019050612cfc60008301846128f1565b92915050565b6000608082019050612d1760008301876128f1565b612d2460208301866128f1565b612d316040830185612cb4565b8181036060830152612d43818461290f565b905095945050505050565b6000602082019050612d636000830184612900565b92915050565b60006020820190508181036000830152612d838184612948565b905092915050565b60006020820190508181036000830152612da4816129b2565b9050919050565b60006020820190508181036000830152612dc4816129d5565b9050919050565b60006020820190508181036000830152612de4816129f8565b9050919050565b60006020820190508181036000830152612e0481612a1b565b9050919050565b60006020820190508181036000830152612e2481612a3e565b9050919050565b60006020820190508181036000830152612e4481612a61565b9050919050565b60006020820190508181036000830152612e6481612a84565b9050919050565b60006020820190508181036000830152612e8481612aa7565b9050919050565b60006020820190508181036000830152612ea481612aca565b9050919050565b60006020820190508181036000830152612ec481612aed565b9050919050565b60006020820190508181036000830152612ee481612b10565b9050919050565b60006020820190508181036000830152612f0481612b33565b9050919050565b60006020820190508181036000830152612f2481612b56565b9050919050565b60006020820190508181036000830152612f4481612b79565b9050919050565b60006020820190508181036000830152612f6481612b9c565b9050919050565b60006020820190508181036000830152612f8481612bbf565b9050919050565b60006020820190508181036000830152612fa481612be2565b9050919050565b60006020820190508181036000830152612fc481612c05565b9050919050565b60006020820190508181036000830152612fe481612c28565b9050919050565b6000602082019050818103600083015261300481612c4b565b9050919050565b6000602082019050818103600083015261302481612c6e565b9050919050565b6000602082019050818103600083015261304481612c91565b9050919050565b60006020820190506130606000830184612cb4565b92915050565b6000613070613081565b905061307c82826132e0565b919050565b6000604051905090565b600067ffffffffffffffff8211156130a6576130a5613418565b5b6130af82613447565b9050602081019050919050565b600067ffffffffffffffff8211156130d7576130d6613418565b5b6130e082613447565b9050602081019050919050565b600081519050919050565b600081519050919050565b600082825260208201905092915050565b600082825260208201905092915050565b600081905092915050565b600061313b82613255565b915061314683613255565b9250827fffffffffffffffffffffffffffffffffffffffffffffffffffffffffffffffff0382111561317b5761317a61338b565b5b828201905092915050565b600061319182613255565b915061319c83613255565b9250826131ac576131ab6133ba565b5b828204905092915050565b60006131c282613255565b91506131cd83613255565b9250828210156131e0576131df61338b565b5b828203905092915050565b60006131f682613235565b9050919050565b60008115159050919050565b60007fffffffff0000000000000000000000000000000000000000000000000000000082169050919050565b600073ffffffffffffffffffffffffffffffffffffffff82169050919050565b6000819050919050565b600060ff82169050919050565b82818337600083830152505050565b60005b8381101561329957808201518184015260208101905061327e565b838111156132a8576000848401525b50505050565b600060028204905060018216806132c657607f821691505b602082108114156132da576132d96133e9565b5b50919050565b6132e982613447565b810181811067ffffffffffffffff8211171561330857613307613418565b5b80604052505050565b600061331c82613255565b91507fffffffffffffffffffffffffffffffffffffffffffffffffffffffffffffffff82141561334f5761334e61338b565b5b600182019050919050565b600061336582613255565b915061337083613255565b9250826133805761337f6133ba565b5b828206905092915050565b7f4e487b7100000000000000000000000000000000000000000000000000000000600052601160045260246000fd5b7f4e487b7100000000000000000000000000000000000000000000000000000000600052601260045260246000fd5b7f4e487b7100000000000000000000000000000000000000000000000000000000600052602260045260246000fd5b7f4e487b7100000000000000000000000000000000000000000000000000000000600052604160045260246000fd5b6000601f19601f8301169050919050565b7f596f75206861766520616c7265616479206d696e7465642031303020746f6b6560008201527f6e732e0000000000000000000000000000000000000000000000000000000000602082015250565b7f4552433732313a207472616e7366657220746f206e6f6e20455243373231526560008201527f63656976657220696d706c656d656e7465720000000000000000000000000000602082015250565b7f4f776e61626c653a206e6577206f776e657220697320746865207a65726f206160008201527f6464726573730000000000000000000000000000000000000000000000000000602082015250565b7f4552433732313a20746f6b656e20616c7265616479206d696e74656400000000600082015250565b7f4552433732313a207472616e7366657220746f20746865207a65726f2061646460008201527f7265737300000000000000000000000000000000000000000000000000000000602082015250565b7f4552433732313a20617070726f766520746f2063616c6c657200000000000000600082015250565b7f4552433732313a206f70657261746f7220717565727920666f72206e6f6e657860008201527f697374656e7420746f6b656e0000000000000000000000000000000000000000602082015250565b7f596f7572207061796d656e742069732073686f72742e00000000000000000000600082015250565b7f536f7272792c2053616c65206973206f76657200000000000000000000000000600082015250565b7f4552433732313a20617070726f76652063616c6c6572206973206e6f74206f7760008201527f6e6572206e6f7220617070726f76656420666f7220616c6c0000000000000000602082015250565b7f4552433732313a2062616c616e636520717565727920666f7220746865207a6560008201527f726f206164647265737300000000000000000000000000000000000000000000602082015250565b7f4552433732313a206f776e657220717565727920666f72206e6f6e657869737460008201527f656e7420746f6b656e0000000000000000000000000000000000000000000000602082015250565b7f45524337323155524953746f726167653a2055524920736574206f66206e6f6e60008201527f6578697374656e7420746f6b656e000000000000000000000000000000000000602082015250565b7f4552433732313a206d696e7420746f20746865207a65726f2061646472657373600082015250565b7f45524337323155524953746f726167653a2055524920717565727920666f722060008201527f6e6f6e6578697374656e7420746f6b656e000000000000000000000000000000602082015250565b7f4552433732313a20617070726f76656420717565727920666f72206e6f6e657860008201527f697374656e7420746f6b656e0000000000000000000000000000000000000000602082015250565b7f4f776e61626c653a2063616c6c6572206973206e6f7420746865206f776e6572600082015250565b7f4552433732313a207472616e73666572206f6620746f6b656e2074686174206960008201527f73206e6f74206f776e0000000000000000000000000000000000000000000000602082015250565b7f4552433732314d657461646174613a2055524920717565727920666f72206e6f60008201527f6e6578697374656e7420746f6b656e0000000000000000000000000000000000602082015250565b7f4552433732313a20617070726f76616c20746f2063757272656e74206f776e6560008201527f7200000000000000000000000000000000000000000000000000000000000000602082015250565b7f4552433732313a207472616e736665722063616c6c6572206973206e6f74206f60008201527f776e6572206e6f7220617070726f766564000000000000000000000000000000602082015250565b7f546f6b656e20646f6573206e6f74206578697400000000000000000000000000600082015250565b613a21816131eb565b8114613a2c57600080fd5b50565b613a38816131fd565b8114613a4357600080fd5b50565b613a4f81613209565b8114613a5a57600080fd5b50565b613a6681613255565b8114613a7157600080fd5b50565b613a7d8161325f565b8114613a8857600080fd5b5056fe5468616e6b20796f7520746865207061796d656e742c20706c6561736520636f6e74616374204e465420636f6e7472616374206f776e65722f61646d696e20666f72204e4654206f776e657273686970207472616e73666572a2646970667358221220384dd1a209c9a91ca2cf209a3809542a0feab5874be9b0733faaabcec92824d764736f6c63430008010033",
  "immutableReferences": {},
  "source": "// SPDX-License-Identifier: MIT\r\npragma solidity >=0.4.22 <0.9.0;\r\n\r\nimport \"../node_modules/@openzeppelin/contracts/token/ERC721/ERC721.sol\";\r\nimport \"../node_modules/@openzeppelin/contracts/token/ERC721/extensions/ERC721URIStorage.sol\";\r\nimport \"../node_modules/@openzeppelin/contracts/utils/Counters.sol\";\r\nimport \"../node_modules/@openzeppelin/contracts/access/Ownable.sol\";\r\n\r\n\r\ncontract SaadCreations is ERC721, Ownable, ERC721URIStorage {\r\n \r\n    using Counters for Counters.Counter;\r\n    Counters.Counter private _tokenIds;\r\n\r\n    uint public totalSupply=0;\r\n    uint public startSaleTime;\r\n    uint public endSaleTime;\r\n    address public Owner;\r\n    uint public lastPublickSaleTokenIndex = 0;\r\n    string public baseURI = \"https://ipfs.io/ipfs/\";\r\n\r\n    mapping(uint => uint) internal NFTPrice;\r\n\r\n    constructor() ERC721(\"Saad Creations\", \"SCT\") {\r\n        Owner = msg.sender;\r\n        \r\n    }\r\n    \r\n    modifier isSaleOn() {\r\n        require( block.timestamp >= startSaleTime && block.timestamp <  endSaleTime, \"Sorry, Sale is over\");\r\n        _;\r\n    }\r\n    \r\n        function _baseURI() internal view override returns (string memory) {\r\n            return baseURI;\r\n        }\r\n        \r\n        function setBaseUri(string memory newUri) external onlyOwner {\r\n            baseURI = newUri;\r\n        }\r\n    \r\n    \r\n     // The following function is override required by Solidity.    \r\n            function _burn(uint256 tokenId) internal override(ERC721, ERC721URIStorage) {\r\n        super._burn(tokenId);\r\n    }\r\n\r\n     // The following function is override required by Solidity.\r\n    \r\n    function tokenURI(uint256 tokenId)\r\n        public\r\n        view\r\n        override(ERC721, ERC721URIStorage)\r\n        returns (string memory)\r\n    {\r\n        return super.tokenURI(tokenId);\r\n    }\r\n\r\n        function createNFT (address zct_owner, string memory zctURI, uint _price) public onlyOwner returns (string memory) {\r\n        \r\n        _tokenIds.increment();\r\n        \r\n         uint256 newNFTItemId = _tokenIds.current();\r\n         require(newNFTItemId <= 100, \"You have already minted 100 tokens.\");\r\n        _mint(zct_owner,newNFTItemId);\r\n        totalSupply++;\r\n        _setTokenURI(newNFTItemId, zctURI);\r\n\r\n        _setNFTPrice(newNFTItemId, _price);\r\n\r\n        return (\"New NFT Created!\");\r\n        }   \r\n\r\n        function _setNFTPrice(uint _id, uint _price)internal onlyOwner  {\r\n            NFTPrice[_id] = _price;\r\n        }\r\n\r\n\r\n        function startSale() external onlyOwner returns(string memory){\r\n        startSaleTime = block.timestamp;\r\n        endSaleTime = startSaleTime + 30 days;\r\n        return(\"Token sale has started now.\");\r\n        }\r\n        \r\n        function getNFTPriceById (uint _id) public view returns (uint){\r\n            uint _NFTPriceByid = NFTPrice[_id];\r\n            return  _NFTPriceByid;\r\n        }\r\n\r\n        function buyNFT(uint8 _tokenId) public payable isSaleOn returns(string memory){\r\n        require(_exists(_tokenId),'Token does not exit');\r\n        require(msg.value >= NFTPrice[_tokenId],\"Your payment is short.\");\r\n        lastPublickSaleTokenIndex = _tokenId;\r\n        return(\"Thank you the payment, please contact NFT contract owner/admin for NFT ownership transfer\");\r\n        }\r\n\r\n        receive() external payable {}\r\n    \r\n}\r\n",
  "sourcePath": "D:/My Documents New/DL ML BC CC/BCC Q3/Assignment/ASSIGNMENT 4 (ERC721)/contracts/SaadCreations.sol",
  "compiler": {
    "name": "solc",
    "version": "0.8.1+commit.df193b15.Emscripten.clang"
  },
  "schemaVersion": "3.4.0",
  "updatedAt": "2021-11-10T10:31:17.762Z",
  "networkType": "ethereum",
  "devdoc": {
    "kind": "dev",
    "methods": {
      "approve(address,uint256)": {
        "details": "See {IERC721-approve}."
      },
      "balanceOf(address)": {
        "details": "See {IERC721-balanceOf}."
      },
      "getApproved(uint256)": {
        "details": "See {IERC721-getApproved}."
      },
      "isApprovedForAll(address,address)": {
        "details": "See {IERC721-isApprovedForAll}."
      },
      "name()": {
        "details": "See {IERC721Metadata-name}."
      },
      "owner()": {
        "details": "Returns the address of the current owner."
      },
      "ownerOf(uint256)": {
        "details": "See {IERC721-ownerOf}."
      },
      "renounceOwnership()": {
        "details": "Leaves the contract without owner. It will not be possible to call `onlyOwner` functions anymore. Can only be called by the current owner. NOTE: Renouncing ownership will leave the contract without an owner, thereby removing any functionality that is only available to the owner."
      },
      "safeTransferFrom(address,address,uint256)": {
        "details": "See {IERC721-safeTransferFrom}."
      },
      "safeTransferFrom(address,address,uint256,bytes)": {
        "details": "See {IERC721-safeTransferFrom}."
      },
      "setApprovalForAll(address,bool)": {
        "details": "See {IERC721-setApprovalForAll}."
      },
      "supportsInterface(bytes4)": {
        "details": "See {IERC165-supportsInterface}."
      },
      "symbol()": {
        "details": "See {IERC721Metadata-symbol}."
      },
      "transferFrom(address,address,uint256)": {
        "details": "See {IERC721-transferFrom}."
      },
      "transferOwnership(address)": {
        "details": "Transfers ownership of the contract to a new account (`newOwner`). Can only be called by the current owner."
      }
    },
    "version": 1
  },
  "userdoc": {
    "kind": "user",
    "methods": {},
    "version": 1
  }
}